:020000040800F2
:10000000C0450120E5A90008590700085B07000862
:100010005F0700086307000867070008000000008A
:10002000000000000000000000000000790200084D
:100030006B07000800000000CD020008DDA60008E4
:10004000FFA90008FFA90008FFA90008FFA90008F0
:10005000FFA90008FFA90008FFA90008FFA90008E0
:10006000FFA90008FFA90008FFA90008FFA90008D0
:10007000FFA90008FFA90008FFA90008FFA90008C0
:10008000FFA90008FFA90008FFA90008FFA90008B0
:10009000751A0008FFA90008FFA90008FFA90008B9
:1000A000FFA90008FFA90008FFA90008FFA9000890
:1000B000FFA90008FFA90008FFA90008FFA9000880
:1000C000FFA90008FFA90008FFA90008FFA9000870
:1000D000FFA90008FFA90008B5200008FFA9000833
:1000E000FFA90008FFA90008FFA90008FFA9000850
:1000F000FFA90008FFA90008FFA90008FFA9000840
:10010000FFA90008FFA90008FFA90008FFA900082F
:100110003926000803280008FFA90008FFA90008E5
:10012000FFA90008FFA90008FFA90008FFA900080F
:10013000FFA90008FFA90008FFA9000891200008F6
:100140003B200008FFA90008FFA90008FFA900083C
:10015000FFA90008FFA90008FFA90008FFA90008DF
:10016000FFA90008FFA90008FFA90008FFA90008CF
:10017000FFA90008FFA90008FFA90008FFA90008BF
:10018000FFA90008FFA9000800F002F800F064F8D9
:100190000AA090E8000C82448344AAF10107DA45E2
:1001A00001D100F059F8AFF2090EBAE80F0013F0D0
:1001B000010F18BFFB1A43F0010318477C7D0100B3
:1001C0009C7D01000A444FF0000C10F8013B13F035
:1001D000070408BF10F8014B1D1108BF10F8015BA0
:1001E000641E05D010F8016B641E01F8016BF9D193
:1001F00013F0080F1EBF10F8014BAD1C0C1B09D1EA
:100200006D1E58BF01F801CBFAD505E014F8016B5B
:1002100001F8016B6D1EF9D59142D6D370470000ED
:100220000023002400250026103A28BF78C1FBD8FF
:10023000520728BF30C148BF0B607047642914F0D3
:100240001F82782914F05882002070471FB516F0DD
:1002500076FD1FBD10B510BD14F020FD1146FFF74F
:10026000F5FF00F064F814F03EFD03B4FFF7F2FF71
:1002700003BC0AF021FA00002A4B19680868B0E8AC
:10028000F04F80F30988BFF36F8F4FF0000080F3C9
:10029000118870470000000006480068006880F37D
:1002A000088862B661B6BFF34F8FBFF36F8F00DF70
:1002B00000BF00BF08ED00E0DFF80C00016841F46A
:1002C00070010160704700BF88ED00E0EFF3098026
:1002D000BFF36F8F134B1A681EF0100F08BF20ED8D
:1002E000108A20E9F04F106008B44FF0500080F3FE
:1002F0001188BFF34F8FBFF36F8F12F03AFC4FF0AE
:10030000000080F3118808BC19680868B0E8F04F55
:100310001EF0100F08BFB0EC108A80F30988BFF3FD
:100320006F8F704764080020EFF30580704700F07E
:100330000AF90AF061F909F014FA02F0A3FC12F0CC
:10034000A7FD00BFFEE7000003468B4201DA084626
:100350007047934201DD1046FAE71846F8E7F0EEE1
:10036000401AF4EEE01AF1EE10FA02D2B0EE600A92
:100370007047F4EEC11AF1EE10FA02DDB0EE410A58
:10038000F6E7B0EE610AF3E703468B4201DA08466E
:100390007047934201DD1046FAE71846F8E7034636
:1003A0008B4201DA08467047934201DD1046FAE7B6
:1003B0001846F8E7B0EE402A9FED670AF0EE401AC3
:1003C00032EE600AF0EE401AF5EEC01AF1EE10FAC5
:1003D0000EDDF4EEC11AF1EE10FA04DD30EE810A02
:1003E000F0EE400A16E030EEA10AF0EE400A11E00D
:1003F000B1EE410AF4EEC01AF1EE10FA06D2B1EEF7
:10040000410A30EE800AF0EE400A03E030EEA10A25
:10041000F0EE400AB0EE600A704790ED001AB5EEBB
:10042000C01AF1EE10FA1CDD90ED001AB4EEE01ADD
:10043000F1EE10FA0ADD30EE201AB0EE410A90ED2E
:10044000001A31EE601A80ED001A2CE090ED001ACF
:1004500031EE001AB0EE410A9FED3F1A80ED001A0E
:1004600021E090ED001AF1EE601AB4EEE11AF1EE1F
:1004700010FA0ED2B1EE601A30EE011AB0EE410A57
:1004800090ED001AF1EE601A31EE611A80ED001A5B
:1004900009E090ED001A31EE001AB0EE410A9FED2E
:1004A0002E1A80ED001A704710B504F06AF907F0B3
:1004B00078FF10BD10B5A8200AF01DF901F064FA0C
:1004C00001F058FE02F031F901F0F6FE01F05FFF95
:1004D00001F0F8FF01F0EEFC02F043F801F0C6FF76
:1004E00002F000FA02F0D4F902F03AFA47F2305181
:1004F000042002F0FBFA0AF04AFC1FE012F038FD7B
:10050000164908600846006815490968884215D3ED
:10051000124800686430124908601248B0F90000BF
:10052000022805DB0020104908700E49088005E00C
:100530000C480088401C00B20A4908800CF065FD98
:100540000028DBD110BD10B5FFF7AEFF00F011F8A9
:10055000FFF7B0FF10BD0000000000000400002005
:10056000080000200C0000200000002077480068F0
:1005700070474FF480607649088048808880C88042
:100580000320087248720020488100217048818150
:10059000C1810174417400206D494882704710B5D3
:1005A00012F0E6FC32306949086010BD6848007AF4
:1005B000012807D06648007A032803D06448007AEF
:1005C000022831D16248407A012807D06048407A39
:1005D000032803D05E48407A022825D15C48008871
:1005E00040F2946188421FDC59480088B0F5B67F1C
:1005F0001ADB57484088884216DC55484088B0F5D9
:10060000B67F11DB5248808888420DDC50488088D4
:10061000B0F5B67F08DB4E48C088884204DC4C4801
:10062000C088B0F5B67F01DA012070470020FCE7F2
:1006300010B5002400F0D5F801280FD14448807C83
:1006400000F0200050B14248807C00F0100028B13A
:100650003F48408A00F4006000B1012460B210BD40
:1006600010B5044604B910BD2078617840EA012035
:10067000C0F30A00364908806078C010A17840EACB
:100680004110C0F30A0032494880A0788011E17817
:1006900040EA8100217940EA8120C0F30A002C4918
:1006A000888020794010617940EAC110C0F30A00C7
:1006B0002749C88060790011800808726079C0F30A
:1006C00001104872A079E17940EA012000B2204986
:1006D0004881207A617A40EA012001B21C48818178
:1006E000A07AE17A40EA012001B21948C181217B58
:1006F0000174617B4174A07BE17B40EA01201449D5
:100700004882FFF753FF012803D0FFF791FF01282C
:1007100018D14FF480610F480DF014FE4FF40061C2
:100720000C480DF00FFE4FF400510A480DF00AFE80
:100730004FF4804107480DF005FEFFF71AFF00F067
:1007400019F801E002F0E4F900BF8CE71000002086
:10075000D808002000080240704700BFFEE700BF35
:10076000FEE700BFFEE700BFFEE77047002020491C
:100770000870704710B5FFF7F9FFFFF7FAFE4FF466
:1007800000711C480DF0DEFD04F05DF807F0CFFFAE
:1007900000F05BFA05F04BFB00F0C2FB01F07AF8C9
:1007A00010BD1348007880B913480068401C1249F6
:1007B00008600846006840F6C411884205D9002048
:1007C0000D49086001200A49087070470B48407ABB
:1007D000012802D10A49087002E000200849087087
:1007E000704707480078704701480078704700005C
:1007F00015000020000C024018000020D80800203E
:10080000140000209FED2F1A80ED001A9FED2D1A85
:1008100080ED051A80ED090AC0ED0A0AB7EE001A4C
:1008200080ED071A9FED271A80ED081AB7EE001A1F
:1008300080ED0B1A90ED001A80ED011A7047F0EE72
:10084000400A90ED070A90ED001A20EE010A80EDB3
:10085000010A90ED090A90ED071AD0ED051A01EE94
:10086000210A80ED030A90ED030A90ED0A1A30EE9A
:10087000010A90ED031AC1EE001AC0ED061A90EDC0
:10088000010A90ED061AD0ED011A70EEE11A01EEA0
:10089000210A80ED020A90ED060AB7EE001A31EE49
:1008A000400A90ED031A20EE010A80ED040A90ED53
:1008B000040A80ED050A90ED020A80ED000A90ED31
:1008C000020A70470000000070B504460D4605F1AD
:1008D0000C030122022104F10C0010F095FB05F13C
:1008E00014030122022104F1140010F08DFB05F124
:1008F0001C030122022104F11C0010F085FB05F10C
:1009000074030222114604F1240010F07DFB05F16E
:1009100084030222114604F12C0010F075FB05F14E
:1009200094030222114604F1440010F06DFB05F11E
:10093000A4030222114604F14C0010F065FB05F1FE
:1009400044030222114604F1540010F05DFB05F14E
:1009500024030222114604F15C0010F055FB05F15E
:1009600034030222114604F1640010F04DFB05F13E
:1009700054030222114604F1340010F045FB04F147
:10098000340104F1240010F0CDFD05F164030222CE
:10099000114604F13C0010F037FB04F13C0104F176
:1009A0002C0010F0BFFD70BD10B52DED028B8AB08C
:1009B0000446B0EE408AF0EE608A00200690079070
:1009C000089009900490059006AB0222114602A8F7
:1009D00010F01AFB04AB01220221684610F014FB50
:1009E000206A80ED008A206AC0ED018A04F11402B9
:1009F00004F10C0104F1240010F092FC04F15C02FB
:100A000004F1540104F1240010F08AFC02AA04F15C
:100A1000340104F15C0010F083FC04F15C0204F189
:100A2000440102A810F090FA04F1640204F15C01A0
:100A300004F12C0010F074FC02AA04F13C0104F152
:100A4000640010F06DFC04F1640204F14C0102A892
:100A500010F07AFA04F1540104F1640010F0D8FAAD
:100A600002AA04F13C0104F15C0010F059FC04F10D
:100A7000640204F1540102A810F052FC6A4604F129
:100A8000140104F12C0010F04BFC04F10C02694637
:100A900004F11C0010F0E6FC6A4604F10C0104F1BC
:100AA000640010F03DFC04F10C02694604F11400EE
:100AB00010F04AFA04F1540204F12C0104F164002C
:100AC00010F02EFC02AA04F1540104F1440010F0CD
:100AD000C9FC04F1540204F15C0102A810F020FCEE
:100AE000206990ED000A0C4880ED000A206990ED25
:100AF000010A0A4880ED000A206990ED000A84EDA1
:100B0000010A206990ED010A84ED020A201D0AB055
:100B1000BDEC028B10BD00001C0000202000002056
:100B200030B5034605E013F8010B80EA02043F48A4
:100B3000025D081EA1F10105A9B2F4D1104630BD35
:100B400070B505460C4600260DB1022C01DC0020D4
:100B500070BD601E81B2FF222846FFF7E1FF064606
:100B6000601E285CB04201D10120F1E70020EFE7D0
:100B700070B505460C4600260DB1022C00DC70BD98
:100B8000601E81B2FF222846FFF7CAFF0646601E9C
:100B90002E5400BFF3E730B5034613B94FF6FF708C
:100BA00030BD09E013F8014B82EA0400C0B2204DC9
:100BB00035F8100080EA2222081EA1F10101F1D1CE
:100BC0001046EDE770B505460C4600260DB1022C27
:100BD00001D8002070BDA11E164802882846FFF7E4
:100BE000DAFF0646F1B2A01E285C814206D1601EE3
:100BF000285CB0EB162F01D10120EBE70020E9E7DC
:100C000070B505460C4600260DB1022C00D870BD0B
:100C1000A11E084802882846FFF7BDFF0646A01E11
:100C20002E54310A601E295400BFF0E7536D0108AD
:100C3000546E010824000020002801DD014600E078
:100C4000414208B2A8498863704700B50020FFF709
:100C5000F3FF00BD10B50024A4480078012808D196
:100C60000020A34908705920A249088000209F490C
:100C7000087012F07DF904469D48007810B10128F3
:100C80006FD13FE09C48408A00F4807058B9012041
:100C90009A4908709A480068201AB0F5FA7F02D97C
:100CA0000020984908709448408A00F4807080B110
:100CB0009248007801280CD105F095FC48B990487D
:100CC000046000208D4908708E480078401C8D49D2
:100CD00008708C480078022810DB012084490870D5
:100CE00034208449088009F03EF8002803DD09F02B
:100CF0003DF805F069F98448046002E059207D4917
:100D000008802EE07C48408A00F4807010B90120F1
:100D10007A4908707848807C00F0020008B97A4867
:100D2000046079480068201AB0F5487F0ED87248F0
:100D3000807C00F0400048B96F48807C00F0800063
:100D400020B96D48408A00F4804018B100206849FD
:100D5000087002E034206749088000206949087063
:100D600000BF00BF10BD6448407A032817D1624815
:100D7000007A01280FD165480078012803D10220AC
:100D8000624908700EE06148007802280AD100200C
:100D90005E49087006E001205C49087002E000200E
:100DA0005A49087059480078022801D1012070473B
:100DB0000020FCE710B5FFF717FD68B959204D4931
:100DC00008805349088001204C490870002051498F
:100DD00008704C49087022E0FFF7C5FF50B1454844
:100DE0000088342803D159204249088002E0342089
:100DF00040490880FFF7F5FC012802D1FFF72AFFE0
:100E00000DE000203A49087001203C49087000209C
:100E1000404908703B4908700120344908703C483B
:100E2000B0F900003349B1F90010884214DA3848AB
:100E3000008839490988084400B2354908802D489E
:100E4000B0F900200846B0F90010B0F90000FFF733
:100E50009BFA2F4908801CE02D48B0F90000254975
:100E6000B1F90010884214DD294800882A49098810
:100E7000401A00B2264908800846B0F900201D48F3
:100E8000B0F900102248B0F90000FFF77DFA2049C0
:100E900008801F48B0F90000FFF7CEFE1648408AD0
:100EA00000F4805038B11448408A00F4806010B1DA
:100EB00001201A49087010BD15480088342801D156
:100EC000012070470020FCE70A480088342801D13F
:100ED000012070470020FCE7104800787047002090
:100EE0000E490870704700000000014034000020E7
:100EF000290000202A000020D8080020300000200F
:100F00003C00002032000020380000202800002093
:100F10002C000020310000202E0000203300002093
:100F200010B59FEDFE0AFE4880ED000AFD4890EDE9
:100F3000000AB5EEC00AF1EE10FA07DD90ED000AE6
:100F4000F7EE000A30EE600A80ED000AF54890EDF9
:100F5000000AB5EEC00AF1EE10FA03D29FEDEF0AD7
:100F600080ED000AEF4890ED000ABDEEC00A10EED9
:100F7000100A01B2EB4890ED000ABDEEC00A10EE77
:100F8000100A00B201F05FFA10BDE64890ED000AC9
:100F9000E348D0ED000AB4EEE00AF1EE10FA18D200
:100FA000E04890ED000AF1EE040A30EE200A80EDF0
:100FB000000A90ED000ADA48D0ED000AB4EEE00A2B
:100FC000F1EE10FA19DD90ED000AD64880ED000A26
:100FD00013E0D44890ED000AD148D0ED000AB4EEF9
:100FE000E00AF1EE10FA08DDCE4890ED000AF1EECD
:100FF000040A30EE600A80ED000ACA4890ED000A4B
:10100000B5EEC00AF1EE10FA03D29FEDC40A80EDEE
:10101000000A704710B52DED028BB7EE000AB0EE56
:10102000408AB1EE040AF0EE408ABF48D0F80B00C7
:1010300000EE100ADFEDBD0A80EE201AF0EE418AC4
:1010400005F0D1FA60B10420B9490880B94809888F
:1010500000EB810090ED000AB74880ED000AA1E0A6
:10106000B648007C01280FD108F015FA60B90320BA
:10107000AF490880AF48098800EB810090ED000A75
:10108000AD4880ED000A8DE0AC48408A00F4006075
:1010900060B10120A6490880A648098800EB8100BC
:1010A00090ED000AA44880ED000A7BE0A348408A46
:1010B00000F4004060B102209D4908809D480988E5
:1010C00000EB810090ED000A9B4880ED000A69E08A
:1010D00008F0E1F9002859D09348007C01282CD170
:1010E000002097490880974890ED000A38EEC00A22
:1010F0009548D0ED000A934890ED001A70EEC10AB1
:1011000080EE201AB0EE418AB7EE001ADFED830AB6
:10111000B0EE480AFFF723F9B0EE408A854890ED1B
:10112000030AD0ED010A70EE600A90ED010A00EEAC
:10113000880A814880ED000A18E081480088401C38
:1011400000B27F4908800846B0F9000014280DDB82
:10115000C82008800320764908807648098800EB7B
:10116000810090ED000A744880ED000A05F09EFDB4
:10117000C0B105206E4908806E48098800EB8100E7
:1011800090ED000A6C4880ED000A0BE003206849EE
:1011900008806848098800EB810090ED000A6648E5
:1011A00080ED000A6548007C012807D05C4890ED7E
:1011B000000AB5EEC00AF1EE10FA05DD5E4890EDCA
:1011C000000A574880ED000ABDEC028B10BD5B4859
:1011D000407A022817D15948007A01280FD15B487C
:1011E0000078012803D10220584908700EE05748C2
:1011F000007802280AD100205449087006E0012036
:101200005249087002E00020504908704F480078A9
:10121000022801D1012070470020FCE710B5FFF73C
:10122000E3FA90B90020424908809FED3C0A3C480F
:1012300080ED000A9FED390A3A4880ED000A4FF42C
:10124000007143480DF07EF842E0FFF7CAFAE0BBB8
:10125000012037490880FFF7BAFFE0B1354890ED2B
:10126000000A2F48D0ED000AB4EEE00AF1EE10FAC1
:1012700006D2304890ED000A294880ED000A27E0A8
:101280002C482B49098800EB810090ED000A244886
:1012900080ED000A1CE027482549098800EB810001
:1012A00090ED000A1E48D0ED000AB4EEE00AF1EE1F
:1012B00010FA0DD21F481E49098800EB810090EDFD
:1012C000000A174880ED000A02E0FFE7FFF7A2FEE0
:1012D000FFF75BFE134890ED000AB5EEC00AF1EE91
:1012E00010FA0BDD05F07FF940B9FFF7E5FD28B9ED
:1012F0004FF4007116480DF023F804E04FF400712C
:1013000013480DF01FF8074890ED000ABDEEC00A23
:1013100010EE100A01B203481CE0000000000000BB
:101320006800002070000020C01100200000C842AA
:1013300062000020400000206C000020D80800203F
:1013400084000020800000207C0000206400002039
:10135000000C024090ED000ABDEEC00A10EE100A2B
:1013600000B201F070F810BD294890ED000AB5EE0A
:10137000C00AF1EE10FA01DD012070470020FCE701
:1013800010B511F0F5FD23490860234890ED000ADF
:10139000B5EEC00AF1EE10FA0BDD084601681F48F1
:1013A000006800F2DC5081420AD301201C49087019
:1013B00006E01848006819490860002018490870BC
:1013C0001748007810BD10B508F065F8A8B11548A9
:1013D000408A00F4006080B91248408A00F400405E
:1013E00058B908F0BAFCDFED100A20EE200ABCEE76
:1013F000C00A10EE100A80B210BD0C480C490988D2
:1014000030F81100F8E7044890ED000A704700003A
:10141000680000208C000020700000208800002060
:1014200086000020D80800203333B33F5800002046
:101430006200002010B52DED028B9FEDFA0AB0EE90
:10144000408A03F0B5FCB0EE408AF74880ED008A90
:1014500090ED000AB4EE480AF1EE10FA0FD1B5EEA5
:10146000C08AF1EE10FA0AD0F048007838B911F0CD
:101470007FFDEF4908600120EC49087035E0EA483B
:1014800090ED000AB4EE480AF1EE10FA13D1B5EE71
:10149000C08AF1EE10FA0ED0E448007801280AD193
:1014A00011F066FDE2490968401AC8281DD90220DA
:1014B000DE49087019E0DC4890ED000AB4EE480AF5
:1014C000F1EE10FA0CD1B5EEC08AF1EE10FA07D0A9
:1014D000D6480078022803D10120D649087004E0DC
:1014E0000020D2490870D3490870B5EEC08AF1EEE9
:1014F00010FA0DD1B7EE000ACF4880ED000AB2EE27
:101500000E0ACE4880ED000AB2EE040A80ED010A10
:10151000CB48807C00F0100070BBC648007898B9BA
:10152000B5EEC08AF1EE10FA0ED0B7EE000AC2484E
:1015300080ED000AB2EE0E0AC04880ED000AB2EE5D
:10154000040A80ED010A2AE0BA480078012826D171
:10155000B5EEC08AF1EE10FA21D0B7EE000AB64817
:1015600080ED000AB2EE060AB44880ED000AB2EE41
:10157000000A80ED010A12E0B148807C00F0100002
:1015800068B1B7EE000AAC4880ED000AB2EE0E0A70
:10159000AA4880ED000AB2EE040A80ED010AA948CB
:1015A00090ED000AA84880ED000AA84890ED000AD6
:1015B000A548D0ED000A30EE600AA54880ED000A8B
:1015C0009E4890ED000AA248D0ED000A20EE200AC5
:1015D0009A4880ED030A90ED040AD0ED010A9C4878
:1015E00090ED001A60EE810A944890ED071A00EE23
:1015F000810A80ED040AD0ED040AB0EE600A9FED86
:10160000951ADFED950AFEF7AAFE8C4880ED040AD4
:1016100090ED030AD0ED040A30EE200A8648D0EDA2
:10162000000A20EE200A854880ED060A8B4890EDDE
:10163000000ADFED8B0AB4EEE00AF1EE10FA0BD2ED
:101640009FED780A7D4880ED060A9FED760A80EDD1
:10165000040A002083490870784890ED060AF0EEED
:10166000080A80EE201AF0EE418A9FED7F1ADFED26
:101670006D0AB0EE680AFEF772FE704880ED060A49
:1016800090ED060AF0EE000A80EE201A9FED770A30
:1016900031EE000A80ED060AD0ED060AB0EE600ACF
:1016A0009FED731ADFED710AFEF759FE634880ED76
:1016B000060ABDEC028B10BD01206A4908700020AB
:1016C0006C490870704710B501206649087001F038
:1016D000B2F9694880ED000A90ED000A6748D0ED44
:1016E000000AB4EEE00AF1EE10FA03DD01206149D0
:1016F000087002E000205F49087010BDB2EE0E0ACB
:101700004E4880ED000AB2EE040A80ED010A9FED1A
:10171000450A80ED020AB2EE040A80ED030AB1EE3A
:10172000040A80ED040A9FED560A80ED070A70470F
:1017300010B508F009FB00EE100AB8EE400A474861
:1017400080ED000A08F0FBFA3E4880ED000AFFF742
:101750004BF860B9FFF7D2FF002001F01DF904211A
:1017600048480CF0EFFD00204249087025E008F0E1
:10177000E3FA28B944480068401C4349086002E085
:1017800000204149086040480068FA2810DCFFF753
:1017900028F810B9FFF790FF0FE02948807C00F08F
:1017A000100010B1FFF78FFF07E0FFF785FF04E09F
:1017B00000202C4908702F4908702A480078012819
:1017C00002D1FFF737FE07E02648007820B99FEDE9
:1017D000150A1A4880ED060A204890ED000ADFED50
:1017E0002B0AB4EEE00AF1EE10FA02D200201D49F5
:1017F0000870124991ED060ABCEEC00A10EE101AEC
:1018000088B201F0C9F801F016F92148D0ED000ABC
:10181000B4EEE00AF1EE10FA03DB042119480CF0F3
:1018200091FD10BD00000000C4000020CC0000208D
:10183000C8000020CD000020A8000020EC080020F7
:10184000D8080020A0000020B0000020AC0000203C
:10185000B40000200000FA440000FAC4A4000020F4
:10186000000070429000002000007A4400C09E44B6
:101870000020BC4491000020940000209C00002027
:101880000AD7A33C00000240D000002000004842DC
:101890009800002010B51FED1D0A344880ED060A9F
:1018A000202133480CF04EFD042131480CF04AFD54
:1018B00010BD10B501F0BFF82E4880ED000A2E488B
:1018C000007801280FD12B4890ED000A2B48D0ED6D
:1018D000000AB4EEE00AF1EE10FA04D20421244822
:1018E0000CF02EFD11E02448007850B1214890ED15
:1018F000000A2248D0ED000AB4EEE00AF1EE10FA38
:1019000003DB04211A480CF01DFD10BD10B51C4866
:101910000078012804D1202115480CF011FD06E0C3
:101920001748007818B9202111480CF00BFD10BDA4
:1019300010B501F080F80F4880ED000A10480078DB
:10194000012810D10F4890ED000AF7EE080A30EE9A
:10195000200A0848D0ED000AB4EEE00AF1EE10FAD1
:1019600001D2012010BD0020FCE70000EC0800209F
:101970000000024094000020900000209800002009
:10198000910000209C00002000B58BB0012108468A
:101990000CF0F8FE012148060CF03DFF02208DF806
:1019A000280000208DF82A004FF4C0500990012033
:1019B0008DF82B0003208DF8290009A9FE480CF0B2
:1019C00043FC09220B21FC480CF0C9FC09220C2124
:1019D000F9480CF0C4FC00208DF81F008DF82000A1
:1019E00008208DF81C0003208DF81D0000208DF8C4
:1019F0001A0001208DF821000320ADF81800002006
:101A00008DF822008DF81B008DF81E008DF8230044
:101A100006A9EA480EF08BF801208DF81500002089
:101A2000ADF81000ADF80800ADF80A00ADF80C00F4
:101A3000ADF80E008DF813008DF8120001208DF81E
:101A4000140002A80EF0FDF801220221DB480EF07E
:101A5000F7FB14208DF8040001208DF8050000200C
:101A60008DF8060001208DF8070001A80CF0FBFAA4
:101A70000BB000BD70B586B04FF40051D0480CF0EB
:101A80005FFC01AA0021CD480EF0BFFACD4840B15D
:101A90000221CA480EF0D7FC01AA0021C7480EF067
:101AA000B4FA40F201210198884220D19DF810003B
:101AB0009DF80F1040EA012005B22946002003F0EE
:101AC000C8F89DF812109DF8110041EA002004B2F8
:101AD0002146002003F0C1F89DF814109DF8130072
:101AE00041EA002006B23146002003F0BAF840F285
:101AF00002210198884220D19DF810009DF80F1016
:101B000040EA012005B22946012003F0A2F89DF821
:101B100012109DF8110041EA002004B22146012074
:101B200003F09BF89DF814109DF8130041EA002083
:101B300006B23146012003F094F840F203210198E7
:101B4000884220D19DF810009DF80F1040EA012036
:101B500005B22946022003F07CF89DF812109DF88A
:101B6000110041EA002004B22146022003F075F87A
:101B70009DF814109DF8130041EA002006B231468A
:101B8000022003F06EF80198B0F5017F20D19DF896
:101B900010009DF80F1040EA012005B229460320ED
:101BA00003F057F89DF812109DF8110041EA00204B
:101BB00004B22146032003F050F89DF814109DF85C
:101BC000130041EA002006B23146032003F049F831
:101BD00040F20521019888420AD19DF810009DF835
:101BE0000F1040EA012005B22946002007F06EFAE6
:101BF00040F20621019888420AD19DF810009DF814
:101C00000F1040EA012005B22946012007F05EFAD4
:101C100006B070BD10B586B004464FF40070019058
:101C200000208DF80C008DF80D0008208DF80E00B6
:101C300094ED000ABDEEC00A10EE100A000A8DF8FD
:101C40000F0094ED000ABDEEC00A10EE100AC1B2FA
:101C50008DF8101094ED010ABDEEC00A10EE100AC6
:101C6000010A8DF8111094ED010ABDEEC00A10EEC4
:101C7000100AC1B28DF8121094ED020ABDEEC00A2E
:101C800010EE100A010A8DF8131094ED020ABDEE51
:101C9000C00A10EE100AC1B28DF8141094ED030AB8
:101CA000BDEEC00A10EE100A010A8DF8151094ED71
:101CB000030ABDEEC00A10EE100AC1B28DF816106C
:101CC0000023012201A9404800680FF0D7FD06B0AB
:101CD00010BD10B586B004464FF40070019000208E
:101CE0008DF80C008DF80D0008208DF80E0094ED95
:101CF000000ABDEEC00A10EE100A000A8DF80F00AF
:101D000094ED000ABDEEC00A10EE100AC1B28DF8C3
:101D1000101094ED010ABDEEC00A10EE100A010A7F
:101D20008DF8111094ED010ABDEEC00A10EE100AF4
:101D3000C1B28DF8121094ED020ABDEEC00A10EE89
:101D4000100A010A8DF8131094ED020ABDEEC00AC4
:101D500010EE100AC1B28DF8141094ED030ABDEE16
:101D6000C00A10EE100A010A8DF8151094ED030A4E
:101D7000BDEEC00A10EE100AC1B28DF8161001A90E
:101D80000E480EF04DF806B010BD10B586B00446F2
:101D900040F2FF10019000208DF80C008DF80D002E
:101DA00008208DF80E0094ED000ABDEEC00A10EE7A
:101DB000100A000A0AE0000000000240006400402F
:101DC0000008024011030108EC0700208DF80F0005
:101DD00094ED000ABDEEC00A10EE100AC1B28DF8F3
:101DE000101094ED010ABDEEC00A10EE100A010AAF
:101DF0008DF8111094ED010ABDEEC00A10EE100A24
:101E0000C1B28DF8121000218DF813108DF8141046
:101E10008DF815108DF816100023012201A9234812
:101E200000680FF02BFD06B010BD10B586B004465B
:101E300040F2FF10019000208DF80C008DF80D008D
:101E400008208DF80E0094ED000ABDEEC00A10EED9
:101E5000100A000A8DF80F0094ED000ABDEEC00ACA
:101E600010EE100AC1B28DF8101094ED010ABDEE0B
:101E7000C00A10EE100A010A8DF8111094ED010A43
:101E8000BDEEC00A10EE100AC1B28DF8121000218A
:101E90008DF813108DF814108DF815108DF816109C
:101EA00001A903480DF0BCFF06B010BDEC070020EF
:101EB0000064004000B58BB0012102200CF062FCF0
:101EC000012148060CF0A7FC012188060CF0A3FCB8
:101ED00009220C2174480CF042FA09220D217248A3
:101EE0000CF03DFA4FF44050029002208DF80C00A7
:101EF00002A96D480CF0A8F940208DF804000120DB
:101F00008DF8050000208DF8060001208DF80700EF
:101F100001A80CF0A8F83F208DF8040001208DF8EE
:101F200005008DF8060000208DF8070001A80CF0D0
:101F30009AF85E480DF0E2FD08A80DF003FF0020BE
:101F40008DF826008DF827008DF828008DF82900DF
:101F50008DF82A0001208DF82B0000208DF822003A
:101F60008DF8230008208DF8240003208DF825002B
:101F7000ADF8200008A94D480DF0D9FD0E208DF8D0
:101F80001A0000208DF81B0001208DF81C00002095
:101F9000ADF81000ADF81200ADF81400ADF8160061
:101FA000ADF8180001208DF81D0004A80DF049FEC1
:101FB000012202213D480EF043F9012211463B481F
:101FC0000EF03EF90BB000BD00B52DED028B85B0D3
:101FD000B0EE408A40F2FF10009000208DF808001B
:101FE0008DF8090008208DF80A0000208DF80B00FC
:101FF00000218DF80C108DF80D108DF80E10BDEE2F
:10200000C80A10EE100A010A8DF80F10BDEEC80ABA
:1020100010EE100AC1B28DF8101000218DF81110C9
:102020008DF81210002301226946214800680FF044
:1020300025FC05B0BDEC028B00BD30B585B002219A
:102040001A480EF065F908B3022118480EF0FBF9A2
:102050006A46002115480DF0D8FF40F2072100988C
:10206000884213D19DF80C009DF80B1040EA012026
:1020700005B2284603F0A2FF9DF80E109DF80D0052
:1020800041EA002004B2204603F09BFF05B030BDBA
:1020900010B5012105480EF03BF918B101210348A4
:1020A0000EF0D1F910BD00000004024000680040AD
:1020B000F007002010B500BF40F2244176480DF033
:1020C000D3FC002855D074480088C4B27248001D63
:1020D0000088C4B201207149087071480EF025FBD8
:1020E00010BB00216E480EF0DDFA6D480EF0FDFACF
:1020F000C0F11E006B4908601E206949091D086077
:1021000067488838D0F8880040F40020091F08602C
:10211000012163480EF0C6FA62480068122826D1F1
:102120006148FEF79DFA22E000215D480EF0BAFA00
:102130005B480EF0DAFAC0F11E005A4908601E2012
:102140005749091D086056488838D0F8880020F49F
:102150000020091F0860012151480EF0A3FA5148E0
:102160000068122803D150481E30FEF779FAFEF7B6
:1021700016FA10BD00B597B001214C480CF002FBD7
:10218000012148040CF047FB0722032148480CF0CA
:10219000E6F80820159002208DF8580000208DF8F0
:1021A0005A0003208DF8590001208DF85B0015A915
:1021B0003F480CF049F838480DF076FA3D48119048
:1021C0000020ADF84800ADF84A004FF48060ADF84B
:1021D0004C000420ADF84E000020ADF8500011A9CD
:1021E0002D480DF0C8FA01212B480DF04CFB0122BF
:1021F000402129480DF0F4FB26208DF80400002032
:102200008DF805008DF8060001208DF8070001A863
:102210000BF029FF012240F224411F480DF0E9FB99
:1022200001211D480DF02FFB1D480EF05FF902A89B
:102230000EF027FA4FF0006002901748001D03903F
:1022400019480490002005901E2006900020079059
:102250004FF480600890002009900A904FF480703D
:102260000B9000020C9000200D900E900F9010909B
:1022700002A90B480EF0DCF900220B491E31084878
:102280000EF037FA012106480EF03FFA012104480A
:102290000EF008FA17B000BD00440040D600002040
:1022A00088600240D80000200C09002001002000B6
:1022B00000000240A086010000B58BB00121084655
:1022C0000CF060FA012102200CF0A5FAC020099060
:1022D00002208DF8280003208DF8290009A95F4805
:1022E0000BF0B2FF022206215C480CF038F8022203
:1022F00007215A480CF033F85320ADF8180000209D
:10230000ADF81A0040F6C31007900020ADF8200089
:1023100006A953480CF023FC7020ADF804000120FE
:10232000ADF806000020ADF8080003900220ADF8DB
:1023300010000020ADF81200ADF814004FF48070CA
:10234000ADF8160001A946480CF09EFC082144484F
:102350000CF027FE01A942480CF0CFFC08214048B0
:102360000CF028FE01213E480CF064FC01213C48A1
:102370000DF06FF801213A480CF07AFC4FF47A70B6
:10238000374934310860091D08600BB000BD00B545
:102390008BB0012110200CF0F5F9012108460CF05A
:1023A0004BFA4FF40060099002208DF828000320BA
:1023B0008DF8290009A92B480BF046FF01220B21BB
:1023C00028480BF0CCFF40F61F50ADF81800002055
:1023D000ADF81A0040F2E73007900020ADF8200079
:1023E00006A921480CF0BBFB7020ADF804000120C9
:1023F000ADF806000020ADF8080003900220ADF80B
:1024000010000020ADF81200ADF814004FF48070F9
:10241000ADF8160001A914480CF06FFC0821124811
:102420000CF0C8FD012110480CF004FC01210E48FD
:102430000DF00FF801210C480CF01AFC00200A499D
:1024400088630BB000BD00F57A72054B34331A6017
:1024500001F57A721B1D1A607047000000000240EF
:102460000004004000100240000001401CB50121A2
:1024700004200CF087F902208DF807008DF8050084
:1024800001208DF804004FF4D840009069460C48B4
:102490000BF0DAFE4FF4806109480BF051FF4FF466
:1024A000006107480BF04CFF4FF4005104480BF05B
:1024B00047FF4FF4804102480BF042FF1CBD000073
:1024C000000802401CB5012108200CF05BF94FF414
:1024D0000070009001208DF8040000208DF80600A7
:1024E00003208DF8050000208DF807006946044898
:1024F0000BF0AAFE4FF4007101480BF023FF1CBD46
:10250000000C024010B56A480DF0F0FF4FF000607B
:10251000684908600020C86067484860674888606C
:102520000020C86064200861002048614FF480608A
:1025300088610020C86108624FF4807048624FF4DF
:10254000403088620420C86203200863002048638A
:10255000886357480EF06CF8012155480EF0A2F838
:1025600010BD00B587B0012108460CF00BF9012120
:10257000C8040CF050F90822002151480BF0EFFE7E
:10258000082201214E480BF0EAFE012001900220B2
:102590008DF8080000208DF80A0003208DF809004E
:1025A00001208DF80B0001A945480BF04DFE0220DB
:1025B000019001A942480BF047FE4FF4E13003902F
:1025C0000020ADF81000ADF81200ADF814000C209A
:1025D000ADF816000020ADF8180003A93648001F1A
:1025E0000DF0C9F801213448001F0DF04CF901220B
:1025F00040F224413048001F0DF0FBF90122402138
:102600002D48001F0DF0ECF9012280212A48001FFF
:102610000DF0E6F9FFF776FF34208DF8000000207A
:102620008DF801008DF8020001208DF80300684646
:102630000BF019FD07B000BD10B540F224411E4853
:10264000001F0DF011FA10B31B48001F00881D4930
:102650000860194800880860002115480EF022F82B
:1026600013480EF042F8C0F16400164908601348A0
:1026700007F0D4FB6421114812F0A1F94FF48061F6
:1026800011480BF05FFE012109480EF00BF810BD58
:1026900010B5044600BF40210748001F0DF0CEF9D9
:1026A0000028F8D021460448001F0DF017F910BD8E
:1026B00040600240AC090020044C00404809002062
:1026C00000000240DC0000200008024010B569480C
:1026D0000DF00CFF4FF00060674908600020C860F3
:1026E00066484860664888600020C86064200861C9
:1026F000002048614FF4806088610020C861086252
:102700004FF4807048624FF4403088620420C86201
:102710000320086300204863886356480DF088FF53
:10272000012154480DF0BEFF10BD00B587B0012156
:102730000C200CF027F8012108050CF06CF8082299
:102740000C2150480BF00BFE082202214E480BF0E2
:1027500006FE4FF48050019002208DF80800002002
:102760008DF80A0003208DF8090001208DF80B0078
:1027700001A944480BF068FD0420019001A94248DA
:102780000BF062FD4FF4E13003900020ADF8100033
:10279000ADF81200ADF814000C20ADF816000020C2
:1027A000ADF8180003A93548001F0CF0E4FF012123
:1027B0003248001F0DF067F8012240F224412F48F3
:1027C000001F0DF016F9012240212C48001F0DF0CA
:1027D00007F9012280212948001F0DF001F9FFF7B8
:1027E00075FF35208DF8000000208DF801008DF870
:1027F000020001208DF8030068460BF034FC07B09E
:1028000000BD10B540F224411C48001F0DF02CF90A
:10281000F0B11A48001F00881C4908601748001FC3
:1028200080880860002113480DF03CFF11480DF02E
:102830005CFFC0F1C80015490860114807F008F8AE
:10284000C8210F4812F0BBF801210A480DF02AFFF9
:1028500010BD10B5044600BF40210848001F0DF010
:10286000EDF80028F8D021460448001F0DF036F896
:1028700010BD000010600240B00A0020045000406B
:10288000E809002000080240000C0240E00000209F
:1028900000B587B0012108460BF074FF01214807FD
:1028A0000BF0B9FF1020059003208DF818000120CF
:1028B0008DF81B0005A980480BF0C6FC0020019094
:1028C000029003900220049001A900200EF01FFA4C
:1028D000012100200EF038FA002108460EF082FA9D
:1028E00007B000BD00B58DB0012104200BF04AFFF8
:1028F000012108020BF0A0FF01200B9003208DF8AE
:10290000300000208DF833000BA96C480BF09CFCC4
:10291000012108020BF0E5FF00214FF480700BF05D
:10292000E0FF002007900A9009904FF48030089053
:1029300007A80DF0E9FF002001908DF808008DF840
:1029400009000390059001208DF8180001A95C484A
:102950000DF0ABFF01215A480DF0EDFF0DB000BDA9
:102960001CB5012108460BF00DFF02208DF8070071
:102970008DF8050001208DF80400242000906946A0
:102980004D480BF061FC04214B480BF0DBFC20218F
:1029900049480BF0D7FC1CBD70B52DED048B0446E7
:1029A000204613F015FE41EC180B9FED460B53EC3F
:1029B000102B51EC180B13F03FFC41EC180B9FED62
:1029C000430B53EC102B51EC180B13F051FE41EC60
:1029D000190B9FED400B53EC102B13F02DFC41EC29
:1029E000180B51EC180B13F0AFFD85B229460020EF
:1029F0000EF0F8F9BDEC048B70BD10B50723012271
:102A00000A212F480DF0D7FF2D480EF030F82C4842
:102A10000EF069F810BD70B504460025002604E0EC
:102A2000FFF7EBFF0544701CC6B2A642F8DBB5FB0E
:102A3000F4F080B270BD10B52DED048B0A20FFF7C5
:102A4000EAFF00EE100AB8EE400A244880ED000AC2
:102A5000006814F003F941EC190B9FED210B53ECC6
:102A6000102B13F005FE41EC180B13F0FFFA1B4975
:102A70000860084690ED000AF2EE060A20EE200AF1
:102A8000BDEC048B10BD10B50024FFF7D4FFF2EEAF
:102A90000A0A30EE600AB2EE051AC0EE010A9FED96
:102AA000120A20EE800ABDEEC00A10EE104A002C79
:102AB00000DA0024204610BD000002400008024059
:102AC000002001400000000000408F400000000096
:102AD0000000B0406666666666660A40E400002054
:102AE0006666666666664A3F0000C84270B505467F
:102AF0000C4645F255500EF007FA28460EF007FA3C
:102B000020460EF007FA0EF008FA0EF00BFA70BD30
:102B100010B50EF002FA10BD00BF04200FF0F9FE50
:102B2000FDF728FEF9E700BF10F022FA5C490860C3
:102B30004FF480615B480BF003FCFDF717FD58492B
:102B40000968884203D9FDF731FD012814D15648A0
:102B5000006810F049F85548006810F045F85448EE
:102B6000006810F041F85348006810F03DF85248F2
:102B7000006810F0C3F813E04B48006810F0BEF88E
:102B80004A48006810F0BAF84948006810F0B6F8F2
:102B90004848006810F0B2F84748006810F024F880
:102BA00032213F480FF051FEBEE700BFC8200FF0B2
:102BB000B0FE06F0E8FFF9E700BF0A200FF0A9FE1B
:102BC000FEF7F8F8FEF72AFBFEF773FEFEF79EFE0F
:102BD000F3E71CB5044611F056FC334803210023EB
:102BE0008022CDE9001035A138480FF014FC2F48A1
:102BF000042100238022CDE9001035A137480FF0D1
:102C00000AFC2B48052100238022CDE9001034A1C5
:102C100037480FF000FC2748062100238022CDE929
:102C2000001034A1AFF26F000FF0F5FB34480A2119
:102C300000238022CDE9001032A1AFF291000FF005
:102C4000EAFB3348022100238022CDE9001031A1A4
:102C5000AFF22D100FF0DFFB174807210023802271
:102C6000CDE9001031A1AFF24F100FF0D4FB4FF4BB
:102C7000FA700FF04EFE304800680FF0B5FF11F00B
:102C800029FC1CBD1CB52C480B2100238022CDE95A
:102C900000102AA1AFF2C5000FF0BDFB1CBD000063
:102CA0000801002000080240F0000020F40000208D
:102CB000F8000020FC000020040100205461736B28
:102CC0005F4368617373697300000000C5460008C4
:102CD0005461736B5F47696D62616C00A382000889
:102CE0005461736B5F5265766F6C7665720000009D
:102CF000955D00085461736B5F31306D73000000A7
:102D0000000100205461736B5F3530306D7300003B
:102D1000EC0000205461736B5F436F6E74726F6CD4
:102D20005F50726F74656374000000005461736BD0
:102D30005F4F757443746C00E80000205374617237
:102D4000745F5461736B000010B5FE48FEF762FFBC
:102D500010BD10B52DED048B9FEDFB0AB0EE409A2F
:102D60009FEDF90AB0EE408A9FEDF70AF0EE408A37
:102D7000002406F0E1FF044606F0E6FF00EE100A2C
:102D8000B8EE400AF0EE408AEE4890ED000AB5EE4B
:102D9000C00AF1EE10FA02DD90ED000A04E0E94805
:102DA00090ED000AB1EE400AE648D0ED010AF5EEDA
:102DB000C00AF1EE10FA02DDD0ED010A04E0E148AC
:102DC000D0ED010AF1EE600A70EE200ADD4890EDC8
:102DD000020AB5EEC00AF1EE10FA02DD90ED020A29
:102DE00004E0D84890ED020AB1EE400A70EE800A85
:102DF000D44890ED030AB5EEC00AF1EE10FA02DDF8
:102E000090ED030A04E0CF4890ED030AB1EE400ACA
:102E100030EE800AB0EE408A74B9CC480068401C9D
:102E2000CA49086008460068642827DD9FEDC80A83
:102E3000C84880ED000A21E00020C4490860C64867
:102E400090ED000AF4EEC08AF1EE10FA10D290ED87
:102E5000000AC8EE800A20EEA00AB0EE409ABF48F1
:102E600090ED000A29EE000ABA4880ED000A05E05C
:102E7000BA4890ED000AB74880ED000AB54890EDD9
:102E8000000AB4EEC08AF1EE10FA54DDAD4890EDC0
:102E9000000AC0EE080AAF4890ED000A20EE800A52
:102EA000BDEEC00A10EE100A00B200EE100AB8EE35
:102EB000C00AA44880ED000A90ED010AC0EE080A9D
:102EC000A44890ED000A20EE800ABDEEC00A10EE84
:102ED000100A00B200EE100AB8EEC00A994880ED60
:102EE000010A90ED020AC0EE080A9A4890ED000A25
:102EF00020EE800ABDEEC00A10EE100A00B200EE0D
:102F0000100AB8EEC00A8F4880ED020A90ED030A5D
:102F1000C0EE080A8F4890ED000A20EE800ABDEE50
:102F2000C00A10EE100A00B200EE100AB8EEC00A95
:102F3000844880ED030ABDEC048B10BD10B52DED67
:102F4000028B0446864800EB8400D0ED000A8548D9
:102F500030F9140000EE100AB8EEC00A30EEC00AD4
:102F6000814800EB840080ED000A804800EB84007B
:102F700090ED000A7C4800EB8400D0ED000A30EEB2
:102F8000200A7A4800EB840080ED000A764800EBC6
:102F9000840090ED000A04EB4400754901EB8000C9
:102FA000D0ED000A20EE200A724800EB840080ED8C
:102FB000000A6E4800EB840090ED000A04EB440028
:102FC00001EB8000D0ED010A20EE200ADFED6A0A55
:102FD00020EE200A694800EB840080ED000A674873
:102FE00000EB8400D0ED000AB0EE600A9FED641A99
:102FF000DFED640AFDF7B3F9604800EB840080ED73
:10300000000A594800EB840090ED000A5E4800EB8E
:10301000840080ED000A5C4800EB840090ED000A1B
:103020005A4800EB8400D0ED000A30EE600A04EB51
:1030300044004F4901EB8000D0ED020A20EE200A47
:10304000534800EB840080ED000A4F4800EB8400F9
:1030500090ED000A4D4800EB840080ED000A4548E1
:1030600000EB840090ED000A444800EB8400D0EDB2
:10307000000A20EE200AB5EEC00AF1EE10FA33D2B3
:1030800004EB440001EB800090ED010A9FED3C1A37
:10309000C1EE000AB1EE040A80EE801AB0EE418A59
:1030A00004EB440001EB8000D0ED010A9FED341ADF
:1030B00081EE200AF1EE040A80EE201AB1EE410AF8
:1030C000F0EE408A294800EB8400D0ED000AB0EE13
:1030D000600AB0EE481AF0EE680AFDF740F923489E
:1030E00000EB840080ED000A224800EB840090EDA4
:1030F000000A224800EB8400D0ED000A30EE200ADE
:10310000234800EB8400D0ED000A30EE200A21486D
:1031100000EB840080ED000A1E4800EB8400D0ED37
:10312000000AB0EE600A1C4890ED001AD0ED000ACB
:10313000F1EE600AFDF713F9164800EB840080ED0C
:10314000000A2BE0AC0B002000000000F80100207A
:1031500000A00C46A40100209C010020A00100203A
:10316000EC0A002038010020FC0A00200C0B002093
:103170003C0B00206C0B00206F12033B7C0B0020EB
:1031800000803B4500803BC51C0B00202C0B002021
:103190008C0B00209C0B002068010020F84800EBFD
:1031A000840090ED000AF74800EB840080ED000AEF
:1031B000BDEC028B10BD10B50020FFF7BFFE012053
:1031C000FFF7BCFE0220FFF7B9FE0320FFF7B6FEB3
:1031D00010BD10B52DED028B9FEDEB0AEB4880ED95
:1031E000000A9FEDE90AEA4880ED000A9FEDE60A31
:1031F000E84880ED000A9FEDE40AE74880ED000A08
:103200009FEDE60AE64880ED000AE648D0ED000AA8
:103210009FEDE21A80EE810AE348D0ED000A9FEDAF
:10322000DF1AC0EE811A30EE210AE04890ED001A54
:10323000DFEDDF1AC1EE210AD54890ED001A00EE4D
:10324000810AD748D0ED000A20EE200AD94880ED47
:10325000000AD44890ED000AF1EE400A9FEDCF1A23
:1032600080EE810AD048D0ED000A9FEDCC1AC0EE66
:10327000811A30EE210ACD4890ED001ADFEDCC1A0C
:10328000C1EE210AC14890ED001A10EE810AC4482F
:10329000D0ED000A20EE200AC64880ED010AC148A0
:1032A00090ED000AF1EE400A9FEDBC1A80EE810A13
:1032B000BD48D0ED000A9FEDB91AC0EE811A30EE7C
:1032C000210ABA4890ED001ADFEDB91AC1EE210AC1
:1032D000B04890ED001A00EE810AB148D0ED000A26
:1032E00020EE200AB34880ED020AAE48D0ED000A75
:1032F0009FEDAA1A80EE810AAB48D0ED000A9FED3F
:10330000A71AC0EE811A30EE210AA84890ED001AE3
:10331000DFEDA71AC1EE210A9F4890ED001A10EECA
:10332000810A9F48D0ED000A20EE200AA14880EDD6
:10333000030AFEF7FDFA10B19FED9F8A01E01FED31
:103340007C8A9C48D0ED000AB0EE600AB0EE481AC4
:10335000F1EE480AFDF703F8964880ED000AD0ED3B
:10336000010AB0EE600AB0EE481AF1EE480AFCF726
:10337000F6FF904880ED010AD0ED020AB0EE600A37
:10338000B0EE481AF1EE480AFCF7E9FF894880EDF3
:10339000020AD0ED030AB0EE600AB0EE481AF1EE70
:1033A000480AFCF7DCFF834880ED030A8348007875
:1033B000042834D17F48D0ED000AB0EE600A1FED3A
:1033C000901A5FED900AFCF7CAFF7A4880ED000A78
:1033D000D0ED010AB0EE600A1FED971A5FED970A73
:1033E000FCF7BDFF734880ED010AD0ED020AB0EE94
:1033F000600A1FEDA91ADFED720AFCF7B0FF6D48F5
:1034000080ED020AD0ED030AB0EE600A1FEDB01A9B
:10341000DFED6B0AFCF7A3FF664880ED030ABDEC05
:10342000028B10BD10B52DED028B0446B0EE408A24
:103430001FEDBB0AF0EE408A00EE104AB8EEC00A5B
:103440006048FDF7FCF9BDEEC00A5F4880ED000A58
:1034500000EE104AB8EEC00A20EE080A5B4880ED84
:10346000000A1FEDC51ADFED560A90ED000AFCF7C1
:1034700076FF564880ED000A5548006852490968B1
:10348000401A534908600846006800EB400000EE0F
:10349000100AB8EEC00A5FEDC80A20EE200A4D48B7
:1034A00080ED000A002C01DD204600E060420A2881
:1034B00002DC0020464908609FED471ADFED470A0D
:1034C000444890ED000AFCF74AFF424880ED000AAC
:1034D0003D4800684249B1F90010401A414908606E
:1034E00039480068002802DD3748006802E03648A5
:1034F0000068404223280EDD3A480068404200EE52
:10350000100AB8EEC00ADFED380A20EE200A37486C
:1035100080ED000A04E01FEDF40A344880ED000A53
:103520002A4890ED000A3148D0ED000A30EE200A1A
:10353000F0EE408A2E4890ED000ABDEEC00A10EE73
:10354000102A90ED000AB1EE400ABDEEC00A10EE5E
:10355000101ABDEEE80A10EE100AFCF7F5FE00EEB8
:10356000100AB8EEC00AF0EE408A1748008800B290
:103570001B490880B0EE680ABDEC028B10BD00004C
:103580009C0B0020AC0B00200F4BB840E00100204A
:10359000DC010020E4010020E8010020D0A2184056
:1035A000EC010020300100202C010020340100201B
:1035B0008CC35B41EC0A002000401C46B101002096
:1035C00000A00CC6BC0B002008020020BC0100209B
:1035D00000020020C001002000409C4500409CC526
:1035E000FC010020040200200000AF43C4010020C1
:1035F000700100202DE9F0412DED0C8B4FF00008FB
:1036000000259FEDFE0A10EE106A9FEDFC0A10EEF9
:10361000107A9FEDFA0A10EE104A04F0ABFA054654
:1036200000EE105AB8EEC00AF1EE400A9FEDF41A0F
:1036300080EE810ADFEDF30A20EE200A10EE104A38
:10364000F14890ED000AF148D0ED000A30EE200A72
:1036500010EE106AEE4890ED000AEE48D0ED000A38
:1036600030EE200A10EE107A204613F0F7FA41EC03
:103670001D0BB0EE4D0AF0EE6D0A11F0D9FFB0EE61
:1036800040BAF0EE60BA384613F0E8FA41EC1C0B91
:1036900053EC1B2B12F0ECFF41EC190B204613F0FE
:1036A000DDFA41EC1D0BB0EE4D0AF0EE6D0A11F0A3
:1036B0004FFFB0EE40BAF0EE60BA304613F0CEFAEB
:1036C00041EC1C0B53EC1B2B12F0D2FF41EC1A0BFC
:1036D00053EC192B13F0D8F941EC180B12F0C6FC7F
:1036E000CD490860204613F0B9FA41EC1D0BB0EE4D
:1036F0004D0AF0EE6D0A11F02BFFB0EE40BAF0EE7D
:1037000060BA384613F0AAFA41EC1C0B53EC1B2BA1
:1037100012F0AEFF41EC190B204613F09FFA41EC7A
:103720001D0BB0EE4D0AF0EE6D0A11F081FFB0EE08
:1037300040BAF0EE60BA304613F090FA41EC1C0B40
:1037400053EC1B2B12F094FF41EC1A0B53EC192B8A
:1037500012F0BEFC41EC180B12F088FCAF49086077
:10376000DFF8BC82A5EB080108B2AE4991ED000A72
:10377000FFF758FEAC4880ED000ABDEC0C8BBDE8AD
:10378000F0812DE9F0412DED0A8B05460C461646D9
:103790001F469FED9A0AB0EE408AB4F9000012F07D
:1037A00000FF41EC1C0B9FEDA10B53EC102B12F012
:1037B0005FFF41EC1B0BB0EE4B0AF0EE6B0A11F011
:1037C0009BFFB0EE40AAF0EE60AA9FED980B53EC81
:1037D000102B51EC1A0B12F04BFF41EC190B12F0AD
:1037E00045FC08EE100A012D0BD1B7EE000AB4EE2D
:1037F000C08AF1EE10FA13D22088304400B2208043
:103800000EE0B5EEC08AF1EE10FA09DD2088C01B8B
:1038100000B22080B4F90000002801DA00202080E6
:10382000B7EE001ADFED750AB0EE480AFCF797FD17
:10383000B0EE408AB0EE480ABDEC0A8BBDE8F081DC
:1038400030B52DED108B85B004460D46B7EE000A5D
:10385000B0EE408A00EE104AB8EEC00A754880ED1E
:10386000000A75490D800FF083FB744908606E48AB
:10387000006813F0F3F941EC1A0BB0EE4A0AF0EECF
:103880006A0A11F0C9FEB0EE409AF0EE609A9FED20
:103890006C0B53EC102B51EC190B12F0E7FF77D2A5
:1038A000694890ED000A20EE000A10EE101A084652
:1038B00013F0D4F941EC190B5B48006813F0CEF912
:1038C00041EC1F0BB0EE4F0AF0EE6F0A11F0A4FEB0
:1038D000B0EE40DAF0EE60DA5B48006813F0BEF953
:1038E00041EC1E0B53EC1D2B13F0CEF841EC1C0BDE
:1038F0009FED530B53EC102B12F0EAFB41EC1A0B2B
:103900004948006813F0AAF941EC1F0BB0EE4F0ACA
:10391000F0EE6F0A11F080FEB0EE40DAF0EE60DA01
:103920004948006813F09AF941EC1E0B53EC1D2B2B
:1039300013F0AAF841EC1C0B9FED410B53EC102B3C
:1039400012F0C6FB41EC1B0B53EC1A2B12F090FE4D
:1039500053EC192BCDE900019DED000B51EC100B40
:1039600012F06AFCCDE902019DED020B51EC100B47
:1039700012F07CFB08EE100AB7EE001ADFED1F0A0A
:10398000B0EE480AFCF7EBFCB0EE408A04E0FFE73B
:10399000B7EE000AB0EE408A284800682B49096853
:1039A00088427DD3254800680A30284908602848A5
:1039B000007800B900BF2748807C00F0010010B1FA
:1039C0000020254908802348807C00F0020010B1C7
:1039D0000020224908801F48807C00F0080010B1B8
:1039E00000201F4908801B48807C00F0040010B1B3
:1039F00000201C4908801749897C35E00000000040
:103A000000000046560EC9408C01002088010020AD
:103A100090010020940100202C01002030010020A2
:103A200000FCFFFF28010020340100203333333332
:103A30003333C33F6C0100207C010020C80100200B
:103A4000000000000000894070010020CC0100202F
:103A5000B1010020D8080020820100208001002050
:103A6000860100208401002001F001004FF4FA7368
:103A7000FE4909880AB2FE49FFF783FEFD48D0EDF2
:103A8000000A20EE200ABDEEC00A10EE100A00B2B5
:103A900000EE100AB8EEC00AF74880ED000A00E018
:103AA00078E0F649897CC1F340004FF4FA73EF499E
:103AB00009880AB2F249FFF764FEEE48D0ED000A29
:103AC000F1EE600A20EE200ABDEEC00A10EE100AE8
:103AD00000B200EE100AB8EEC00AEA4880ED000A13
:103AE000E649897CC1F380004FF4FA73DF49098805
:103AF0000AB2E549FFF745FEDE48D0ED000AF1EED7
:103B0000600A20EE200ABDEEC00A10EE100A00B2D4
:103B100000EE100AB8EEC00ADC4880ED000AD74972
:103B2000897CC1F3C0004FF4FA73D04909880AB206
:103B3000D749FFF726FECF48D0ED000A20EE200A35
:103B4000BDEEC00A10EE100A00B200EE100AB8EE88
:103B5000C00AD04880ED000ACF480078012819D06B
:103B6000C84890ED000AC448D0ED000A30EE200AA3
:103B700020EE080AC94880ED000AC44890ED000A0A
:103B8000C448D0ED000A30EE200A20EE080AC448EE
:103B900080ED000A05B0BDEC108B30BD70B5044659
:103BA000002500EE104AB8EEC00ABE4880ED000ABB
:103BB000BD48007801280CD103F0DCFF0546BB4866
:103BC00090ED000A2846FFF72DFCB94880ED000A69
:103BD00019E0AA48B0F90A0000EE900AF8EEE00AEF
:103BE000B44890ED001A60EE810AB0EE600AAD486C
:103BF00090ED001AD0ED000AF1EE600AFCF7AFFB81
:103C0000AB4880ED000A70BD10B59C48807C00F088
:103C1000010020B19948807C00F0200018B90020F4
:103C20009D4908700BE001209F490870032140F670
:103C3000B830FFF705FE42F22830FFF7AFFF10BDA6
:103C40001FED920A9C4880ED000A1FED940A9348EC
:103C500080ED000A1FED970A914880ED000A1FEDE4
:103C6000990A934880ED000A70472DE9F0472DED41
:103C70000C8B06460F4600241FEDA00A10EE108A9A
:103C80001FEDA20A10EE109A1FEDA40A10EE105AB2
:103C900000EE106AB8EEC00A824880ED000A00EE1D
:103CA000107AB8EEC00A854880ED000A03F062FF82
:103CB000044600EE104AB8EEC00AB1EE400A1FED0D
:103CC000B01AC0EE010A1FEDB10A20EE800A10EE14
:103CD000105A6C4890ED000A6748D0ED000A30EEAB
:103CE000200A10EE108A694890ED000A6948D0ED6C
:103CF000000A30EE200A10EE109A284612F0AEFFAD
:103D000041EC1D0BB0EE4D0AF0EE6D0A11F090FC87
:103D1000B0EE40BAF0EE60BA484612F09FFF41ECB8
:103D20001C0B53EC1B2B12F0A3FC41EC190B284687
:103D300012F094FF41EC1D0BB0EE4D0AF0EE6D0A4F
:103D400011F006FCB0EE40BAF0EE60BA404612F058
:103D500085FF41EC1C0B53EC1B2B12F089FC41EC52
:103D60001A0B53EC192B12F08FFE41EC180B12F0CA
:103D70007DF94A490860284612F070FF41EC1D0B9E
:103D8000B0EE4D0AF0EE6D0A11F0E2FBB0EE40BA73
:103D9000F0EE60BA484612F061FF41EC1C0B53ECA8
:103DA0001B2B12F065FC41EC190B284612F056FF54
:103DB00041EC1D0BB0EE4D0AF0EE6D0A11F038FC2F
:103DC000B0EE40BAF0EE60BA404612F047FF41EC68
:103DD0001C0B53EC1B2B12F04BFC41EC1A0B53EC5D
:103DE000192B12F075F941EC180B12F03FF92C4920
:103DF00008603348008820B101280DD002282CD15A
:103E00001BE04FF67C402F49088000202E490870A7
:103E100001202B49088020E04FF47C40294908808C
:103E200000202949087014F52F7F05DA0220244963
:103E300008800120244908700FE04FF48060214978
:103E40000880002020490870B4F52F7F04DD012090
:103E50001B4908801C49087000BF00BF1949098828
:103E6000611A08B2114991ED000A2FE07C0100208F
:103E7000800100206C01002088010020D80800206B
:103E8000820100208C01002086010020900100208A
:103E90008401002094010020B10100202C010020A9
:103EA0003001002070010020B00100202801002016
:103EB000340100202001002078010020980100201A
:103EC000B4010020B8010020B6010020FFF7AAFAD3
:103ED000FE4880ED000ABDEC0C8BBDE8F08710B504
:103EE000FB48408A00F4007010B90120F9490870BD
:103EF000F748408A00F4805010B90120F649087054
:103F0000F348408A00F40070F8B1F148807C00F07A
:103F10002000D0B902F067FBB8B9EE48007801285C
:103F200013D10020EB490870EC480078401CEB49A5
:103F30000870087800EBD0714910A0EB4101E74A06
:103F400011700120E649087065E0FCF7B5FF18B173
:103F50000320E34908705EE0DD48807C00F001004A
:103F600040B1DB48807C00F0200018B10420DC491F
:103F7000087050E002F037FB18B10220D8490870F1
:103F800049E0D348408A00F48050F8B1D048807CA2
:103F900000F02000D0B902F026FBB8B9CE48007876
:103FA000012813D10020CC490870CE480078401C6D
:103FB000CC490870087800EBD0714910A0EB4101A2
:103FC000C84A11700620C649087024E0C048807CA9
:103FD00000F0200010B902F006FB18B10020C24921
:103FE000087002E00120C0490870FDF7A1FC48B14B
:103FF0000A2142F21070FFF723FC42F22830FFF74B
:10400000CDFD08E00A2142F22830FFF719FC42F208
:104010002830FFF7C3FD10BD10B5B4480078012863
:1040200004D1B14908700020B049087002F0DBFAF1
:1040300010B10020AC490870A9480078072807D2C1
:10404000DFE800F0040776869A069D00FFF747FF39
:1040500008E19F48408A00F4007010B901209D4992
:1040600008709B48408A00F4007098B19948007825
:1040700001280FD100209749087098480078401C0B
:1040800096490870087800EBD0714910A0EB410107
:10409000924A11709148007868B1012092490870E5
:1040A0000A2142F22830FFF7CBFB322142F22830BE
:1040B000FFF7DBFD02E00020894908708448807C1E
:1040C00000F0200010B905F0C6F9C0B18048408A60
:1040D00000F4007098B901207E4908707F4800788C
:1040E000401C7E490870087800EBD0714910A0EBA5
:1040F00041017A4A117000207949087017E074482C
:10410000408A00F4805090B10120724908707348D1
:104110000078401C71490870087800EBD071491094
:10412000A0EB41016D4A117006206D49087099E0BD
:1041300002F059FA30B900206949087001206A4933
:10414000087004E0002068490870FFF779FD89E0F5
:10415000FCF7B2FE18B90020614908700BE000209E
:1041600061490870012140F2DC50FFF769FB4FF410
:10417000FA60FFF713FD75E0FFF746FD72E0544863
:10418000408A00F4805010B901205349087050480B
:10419000408A00F4805098B14F48007801280FD130
:1041A00000204D4908704F480078401C4D49087068
:1041B000087800EBD0714910A0EB4101494A117019
:1041C0004848007838B10A2142F22830FFF738FB1E
:1041D000FFF710FA02E00020414908703C48807C5B
:1041E00000F0200060B905F036F948B93848807C05
:1041F00000F0010020B93648807C00F00200C0B118
:104200003348408A00F4805098B901203249087040
:1042100034480078401C33490870087800EBD071AE
:104220004910A0EB41012F4A117000202C49087061
:1042300017E02748408A00F4007090B10120264919
:10424000087028480078401C26490870087800EB60
:10425000D0714910A0EB4101224A11700120204980
:10426000087000BF00BF10BD00B52DED108B85B0EC
:10427000B7EE000AB0EE408A1548407A022803D112
:1042800001201949087002E00020174908709FEDCD
:10429000180A184880ED000A9FED170A174880EDAC
:1042A000000A9FED150A164880ED000A0E480078B6
:1042B00000287CD106480088A0F5806000EE900AB6
:1042C000F8EEE00A0F4890ED001A1DE034010020DE
:1042D000D8080020A8010020AA010020A901002080
:1042E000B1010020AB010020B0010020B20100208C
:1042F0000000A0429801002000A00C466C010020A4
:10430000700100201001002060EE810AB0EE600A0A
:10431000FE4890ED001AD0ED000AF1EE600AFCF7BD
:104320001EF8FB4880ED000A006812F097FC41EC93
:104330001A0BB0EE4A0AF0EE6A0A11F06DF9B0EE0F
:10434000409AF0EE609A9FEDF30B53EC102B51EC7A
:10435000190B12F08BFA79D2EC4890ED000A20EE9E
:10436000000A10EE101A084612F078FC41EC190B06
:10437000E748006812F072FC41EC1F0BB0EE4F0AE8
:10438000F0EE6F0A11F048F9B0EE40DAF0EE60DAC4
:10439000DE48006812F062FC41EC1E0B53EC1D2B52
:1043A00012F072FB41EC1C0B9FEDDA0B00E098E081
:1043B00053EC102B11F08CFE41EC1B0BD448006821
:1043C00012F04CFC41EC1F0BB0EE4F0AF0EE6F0AFE
:1043D00011F022F9B0EE40DAF0EE60DACB48006876
:1043E00012F03CFC41EC1E0B53EC1D2B12F04CFB6D
:1043F00041EC1C0B9FEDC70B53EC102B11F068FE2A
:1044000053EC1B2BCDE900019DED000B51EC100B83
:1044100012F02EF941EC1A0B53EC192B11F00CFF92
:10442000CDE902019DED020B51EC100B11F01EFEC7
:1044300008EE100AB7EE001ADFEDB80AB0EE480A2F
:10444000FBF78DFFB0EE408A04E0FFE7B7EE000A0D
:10445000B0EE408AB248D0ED001A61EE881AB0EE94
:10446000611AD0ED001AF1EE611A61EE881AF0EED1
:10447000610AAC48C088A0F5806001EE900AF8EEB1
:10448000E11AA94890ED002A61EE821AB0EE610AA5
:10449000FBF765FFA54880ED000AA148D0ED001AA2
:1044A00061EE881AB0EE611AD0ED001AF1EE611AD1
:1044B00061EE881AF0EE610A9A488088A0F5806063
:1044C00001EE900AF8EEE11A974890ED002A61EEAD
:1044D000821AB0EE610AFBF742FF954880ED000AB0
:1044E000ECE0944800780128FAD103F043FB9249AC
:1044F0000880924890ED000A0846B0F90000FEF7E7
:1045000091FF834880ED000A006812F0A7FB41ECA0
:104510001A0BB0EE4A0AF0EE6A0A11F07DF8B0EE1E
:10452000409AF0EE609A9FED7B0B53EC102B51EC10
:10453000190B12F09BF977D2744890ED000A20EE27
:10454000000A10EE101A084612F088FB41EC190B15
:104550006F48006812F082FB41EC1F0BB0EE4F0A6F
:10456000F0EE6F0A11F058F8B0EE40DAF0EE60DAD3
:104570006648006812F072FB41EC1E0B53EC1D2BD9
:1045800012F082FA41EC1C0B9FED620B53EC102BE6
:1045900011F09EFD41EC1A0B5D48006812F05EFBC5
:1045A00041EC1F0BB0EE4F0AF0EE6F0A11F034F839
:1045B000B0EE40DAF0EE60DA5448006812F04EFBDC
:1045C00041EC1E0B53EC1D2B12F05EFA41EC1C0B60
:1045D0009FED500B53EC102B11F07AFD41EC1B0BAF
:1045E00053EC1A2B12F044F853EC192BCDE90001CF
:1045F0009DED000B51EC100B11F01EFECDE90201F8
:104600009DED020B51EC100B11F030FD08EE100A7D
:10461000B7EE001ADFED410AB0EE480AFBF79FFE45
:10462000B0EE408A04E0FFE7B7EE000AB0EE408A41
:104630003B48D0ED001A61EE881AB0EE611AD0ED59
:10464000001AF1EE611A61EE881AF0EE610A35483F
:10465000C088A0F5806001EE900AF8EEE11A3848B3
:1046600090ED002A61EE821AB0EE610AFBF777FE48
:104670002E4880ED000A2A48D0ED001A61EE881A13
:10468000B0EE611AD0ED001AF1EE611A61EE881AEF
:10469000F0EE610A23488088A0F5806001EE900A60
:1046A000F8EEE11A264890ED002A61EE821AB0EE8B
:1046B000610AFBF754FE1E4880ED000A05B0BDEC10
:1046C000108B00BD08B500BF0EF052FC00904FF4F7
:1046D00000511C4809F036FEFCF786F828B9FFF7B0
:1046E000AFFA0020184908703EE0FCF77AF898BB52
:1046F000FFF7BAFD00201449087001201349087023
:104700000020134908700120124926E070010020A2
:10471000340100200000000000008940000000007B
:104720006C010020D80800200C0100202C01002082
:1047300030010020B00100205001002018010020AD
:104740001401002000080240B1010020A80100204F
:10475000A9010020B201002004E008700020FE49F9
:10476000087001E0FFF758FCFEF733FDFEF723FD6C
:10477000FEF7EFFAFEF7E8FA022168460EF065F858
:10478000A2E710B5B2EE0C0AF44880ED000A9FEDE6
:10479000F40AF44880ED000AB2EE0C0AF24880ED0B
:1047A000000ABAEE040AF14880ED000A9FEDF00A13
:1047B000F04880ED000ABAEE040AEF4880ED000AE6
:1047C000B3EE020AED4880ED000A9FEDED0A80EDA0
:1047D000010A1FED2E0A80ED020AB3EE020A80EDF7
:1047E000030A9FEDE70A80ED040A1FED340A80ED0D
:1047F000050AB3EE020A80ED060A9FEDE10A80ED9C
:10480000070A1FED3A0A80ED080AB3EE020A80EDAE
:10481000090A9FEDDB0A80ED0A0A1FED400A80EDD0
:104820000B0A5FED420AB7EE000AD648FBF7EAFF33
:104830009FEDD50AD54880ED000A9FEDD30AD448F4
:1048400080ED000A10BD10B51FED4C0AD14880ED77
:10485000000A1FED4E0A80ED010A1FED500A80ED9F
:10486000020A1FED520A80ED030AFDF732FA10BD6D
:1048700000B52DED048B83B0B0EE408AF0EE608A77
:104880001FED5A0AB0EE409A38EEC80A8DED010AC3
:104890009DED010ADDED020A30EE600AF2EE040A37
:1048A00020EE200ADDED010AB2EE001A00EE810AC8
:1048B000F2EE0E0A20EE200AB0EE409A9FEDB61AF4
:1048C000DFEDB60AB0EE490AFBF749FDB0EE409ABB
:1048D0009DED010A8DED020AB0EE490A03B0BDEC70
:1048E000048B00BD2DE9F0412DED0E8B04460D46E5
:1048F0001FED760AB0EE408A002008EE900A1FED08
:10490000790A10EE106A1FED7B0A10EE107AA448A7
:104910000068401CA249086000EE104AB8EEC00AC8
:104920009B4880ED000A00EE105AB8EEC00A9D4880
:1049300080ED000A03F01EF908EE900AB8EEE80ACE
:10494000F1EE400A9FED981A80EE810ADFED970A9A
:1049500020EE200AB0EE408A954890ED000A954876
:10496000D0ED000A30EE200A10EE106A924890ED69
:10497000000A9248D0ED000A30EE200A10EE107ABC
:104980009FED8F0AC8EE000A10EE908A404612F0A2
:1049900065F941EC1E0BB0EE4E0AF0EE6E0A10F017
:1049A00047FEB0EE40CAF0EE60CA384612F056F943
:1049B00041EC1D0B53EC1C2B11F05AFE41EC1A0B71
:1049C0009FED7F0AC8EE000A10EE908A404612F072
:1049D00045F941EC1E0BB0EE4E0AF0EE6E0A10F0F7
:1049E000B7FDB0EE40CAF0EE60CA304612F036F9BC
:1049F00041EC1D0B53EC1C2B11F03AFE41EC1B0B50
:104A000053EC1A2B12F040F841EC190B11F02EFB6D
:104A10006C4908609FED6A0AC8EE000A10EE908AA1
:104A2000404612F01BF941EC1E0BB0EE4E0AF0EEC0
:104A30006E0A10F08DFDB0EE40CAF0EE60CA384646
:104A400012F00CF941EC1D0B53EC1C2B11F010FE75
:104A500041EC1A0B9FED5A0AC8EE000A10EE908A3C
:104A6000404612F0FBF841EC1E0BB0EE4E0AF0EEA1
:104A70006E0A10F0DDFDB0EE40CAF0EE60CA3046BE
:104A800012F0ECF841EC1D0B53EC1C2B11F0F0FD77
:104A900041EC1B0B53EC1A2B11F01AFB41EC190BD8
:104AA00011F0E4FA484908604848B0F9000000EE07
:104AB000100AB8EEC00A9FED461AC1EE000A384847
:104AC00090ED000AB8EE400A20EE800A10EE108A3F
:104AD000404612F0C3F841EC1C0BB0EE4C0AF0EE6D
:104AE0006C0A10F0A5FDB0EE40AAF0EE60AA3948BD
:104AF000B0F9000011F055FD41EC1B0B53EC1A2BE3
:104B000011F0B6FD41EC190B11F0B0FA3249086012
:104B10000846D0ED000AB0EE480AFFF7A9FEB1EE54
:104B2000400A2E4880ED000ABDEC0E8BBDE8F081F6
:104B300010B5002403F01EF804462948408A20B925
:104B400028480068B0F57A7F50D9002026490870BF
:104B5000244908607CE00000780700200C01002058
:104B60006666364110010020140100201801002063
:104B70000000204220010020280100203C0B0020E2
:104B80000000C842BC0B002000A00C466C010020B5
:104B900070010020AC0B002000409C4500409CC5EB
:104BA000D001002098010020000000460000B4431E
:104BB0008C01002088010020900100209401002039
:104BC000333365422C01002030010020D801002041
:104BD000DB0FC940DA010020D4010020340100209D
:104BE000D8080020AC010020B101002001209A4922
:104BF000087005F0C5F810B99848007840B932211E
:104C000042F22830FFF731F80020954908601FE094
:104C10009FED940A944880ED000A9FED920A934814
:104C200080ED000A9FED8F0A914880ED000A9149BE
:104C30000988611A08B2904991ED000AFEF7F2FB6B
:104C40008E4880ED000A86480068401C8449086050
:104C500010BD8B4A22F8101070478A4A22F81010B3
:104C60007047894A22F81010704710B58748B0F98C
:104C7000000000EE100AB8EEC00A854880ED000A78
:104C800090ED000A8348D0ED000A20EE200A80480B
:104C9000D0ED000A90ED011A70EEC10A7D4890ED4A
:104CA000021A01EE200A754880ED000A7A4890ED5C
:104CB000000ABDEEC00A10EE102A90ED000AB1EE17
:104CC000400ABDEEC00A10EE101A6C4890ED000AC2
:104CD000BDEEC00A10EE100AFBF736FB00EE100A1C
:104CE000B8EEC00A654880ED000A694890ED000AF8
:104CF00080ED010A614890ED000A10BD5648007829
:104D000008B9012070470020FCE7644800780428B7
:104D100001D1012070470020FCE76048007801289D
:104D200000D170470020FCE75C480078062801D1DC
:104D3000012070470020FCE75248B0F9000000282D
:104D400003DD5048B0F9000003E04E48B0F9000020
:104D500040424C49B1F90210002903DD4949B1F93B
:104D6000021003E04749B1F90210494201444548A5
:104D7000B0F90400002803DD4248B0F9040003E064
:104D80004048B0F90400404201443E48B0F90600F2
:104D9000002803DD3B48B0F9060003E03948B0F9CC
:104DA00006004042084400EE100AB8EEC00A704700
:104DB0003B4890ED000AB5EEC00AF1EE10FA02DDB4
:104DC00090ED000A04E0364890ED000AB1EE400A8A
:104DD0003348D0ED010AF5EEC00AF1EE10FA02DD1B
:104DE000D0ED010A04E02E48D0ED010AF1EE600A90
:104DF00070EE200A2A4890ED020AB5EEC00AF1EEE4
:104E000010FA02DD90ED020A04E0254890ED020A56
:104E1000B1EE400A70EE800A214890ED030AB5EE2B
:104E2000C00AF1EE10FA02DD90ED030A04E01C481E
:104E300090ED030AB1EE400A30EE800A70470B484D
:104E400090ED000A70470A4890ED000A70470B4841
:104E500090ED000A70470000B0010020B60100206C
:104E6000AC01002000000000780100202C0100208F
:104E700030010020B801002028010020340100206A
:104E8000400100203801002048010020500100208E
:104E9000F00100205401002070010020B101002029
:104EA000EC0A002010B5FD4890ED000AFDF78CF8E3
:104EB00010BD10B5FA48D0ED000AFA48B0F900006C
:104EC00000EE100AB8EEC00A30EEC00AF64880EDD7
:104ED000000AF64890ED000AF348D0ED000A20EEF3
:104EE000200AF34880ED000AF048D0ED010AF148AD
:104EF00090ED000AEC4890ED001A01EE200AED4812
:104F000080ED000AEC4890ED000ABDEEC00A10EEFC
:104F1000102A90ED000AB1EE400ABDEEC00A10EE74
:104F2000101AE44890ED000ABDEEC00A10EE100A17
:104F3000FBF70AFA00EE100AB8EEC00ADD4880ED71
:104F4000000ADB48D0ED000ADA4890ED001A70EE56
:104F5000810AB0EE600AD94890ED001AD0ED000A3F
:104F6000F1EE600AFBF7FBF9CC4880ED000A10BDBA
:104F70000020D3490880D348B0F9000000EE100AA1
:104F8000B8EEC00AD04880ED000ACE48B0F9000063
:104F900000EE100AB8EEC00ACC4880ED000AC948FD
:104FA000B0F90000CA490880C74890ED000AC94816
:104FB00080ED000A7047C348B0F90000C449B1F958
:104FC0000010401A002807DDBE48B0F90000C049B3
:104FD000B1F90010401A06E0BD48B0F90000B94927
:104FE000B1F90010401AB0F5805F33DBB548B0F975
:104FF0000000B749B1F90010884215DAB448B0F999
:10500000000041F6FF71081AAE49B1F900100844DA
:1050100000EE100AB8EEC00AAC48D0ED000A30EE3F
:10502000200A80ED000A27E0A648B0F9000041F60A
:10503000FF71081AA649B1F90010084400EE100AE1
:10504000B8EEC00AA148D0ED000A30EEC00A80EDEB
:10505000000A11E09B48B0F900009D49B1F9001029
:10506000401A00EE100AB8EEC00A9848D0ED000AC7
:1050700030EE200A80ED000A9248B0F90000944911
:105080000880704710B5FFF796FF8F4890ED000A33
:105090008E48D0ED000A30EE600A8F4880ED000A9D
:1050A00090ED000A8D48D0ED000A20EE200A8C48D1
:1050B00080ED000AD0ED000A7A48B0F9000000EE59
:1050C000100AB8EEC00A30EEC00A834880ED010A2B
:1050D00090ED010A8148D0ED030A20EE200A8048B5
:1050E00080ED010A7C4890ED010A7C48D0ED040A6D
:1050F00060EE200A7B4890ED010A9FED7B1A00EEDE
:10510000810A80ED010AD0ED010AB0EE600A77480D
:1051100090ED001AD0ED000AF1EE600AFBF71FF9DE
:10512000704880ED010A6E48D0ED010A6D4890ED9F
:10513000011A70EE810AB0EE600A604890ED001A24
:10514000D0ED000AF1EE600AFBF709F9534880ED53
:10515000000A10BD00205A4908809FED650A50489A
:1051600080ED000A5748B0F9000000EE100AB8EED2
:10517000C00A554880ED000A5248B0F9000000EE20
:10518000100AB8EEC00A514880ED000A4D48B0F947
:1051900000004F4908804B48B0F9000000EE100AAB
:1051A000B8EEC00A4B4880ED000A9FED510A414815
:1051B00080ED000A9FED4E0A4A4880ED010A7047D3
:1051C0002DE9F041002400261E2704F0C3FD04460B
:1051D00048480088844202D000204749086004F013
:1051E000C2FD06464548008886420DDD43480088DA
:1051F000301A434909880844414908800DF0B8FE37
:105200004049086040480480FCF7DDF80746012F5C
:1052100000DC1E2704F0AEFD05461E2D00DCF02547
:10522000AC4203DC281B3949088002E000203749E2
:10523000088036480088B84206DD3448008890FB74
:10524000F7F03349088002E0002031490880154812
:10525000B0F90000002803DD1248B0F9000003E0B7
:105260001048B0F90000404264280FDC0DF080FEC9
:1052700024490968401A1E2808D923480088C01C00
:10528000844200DC14B900201D49088020480088B1
:10529000012841DC00201F4908704AE03C02002040
:1052A000380200200E02002014020020EC0B002027
:1052B0004C020020500200206802002064020020FE
:1052C00070020020100200202C020020200200208A
:1052D000240200203002002018020020F80B0020D9
:1052E000540200205C0200206F12833A6C020020FE
:1052F000000000000003002004030020FE02002044
:10530000F6020020F8020020FC020020F202002039
:10531000F0020020F4020020FE480088FE490988BF
:10532000884203DA0120FD49087002E00020FB49B1
:105330000870FB480680FB480480F6480088062871
:1053400005DDF9480068401CF749086002E00020CC
:10535000F5490860F448006841F28831884204D970
:105360000020EC490880F0490860F0480068642893
:1053700007D2EA48007810B10120BDE8F081002092
:10538000FBE70120F9E7EA48007801281CD100205A
:10539000E8490880E8480088401CE749088008463A
:1053A000008864285DDDE54890ED000AE44880ED62
:1053B000000A90ED000AE34880ED000A0020DC4975
:1053C0000870DD4908804CE0DF4890ED000AB5EE3A
:1053D000C00AF1EE10FA02DD90ED000A04E0DA48AE
:1053E00090ED000AB1EE400ADFEDD80AB4EEE00A13
:1053F000F1EE10FA14DBD648B0F90000002803DD06
:10540000D348B0F9000003E0D148B0F900004042B1
:105410003C2805DCCF480088401CCE49088002E0CB
:105420000020CC490880CB480088642819DDC34897
:1054300090ED000ADFEDC80A30EE600AC04880ED4A
:10544000000A90ED000ABF4880ED000AC3480068DA
:10545000401CC24908600020BE4908800120B449B0
:105460000870704710B50DF083FDBD490860B14864
:105470000088F0B1BB4800680968884219D2B84872
:105480000068B94909680844B6490860A948008815
:10549000401E00B2A7490880AA4890ED000ADFED3F
:1054A000AE0A30EE200A80ED000A0DF061FDAF4932
:1054B0000860A34890ED000AA248D0ED000AB4EEBF
:1054C000600AF1EE10FA0DD0A94890ED001A9C4840
:1054D000D0ED000A9B4890ED000AFAF76BFF984860
:1054E00080ED000AFFF74FFF10BDA24800780128A9
:1054F00012D19FEDA10AA14880ED000AA0480088C2
:10550000401C9F49088008460088642842DD00202E
:105510000880984908703DE08B4890ED000AB5EE90
:10552000C00AF1EE10FA02DD90ED000A04E08648B0
:1055300090ED000AB1EE400ADFED840AB4EEE00A15
:10554000F1EE10FA14DB8248B0F90000002803DD08
:105550007F48B0F9000003E07D48B0F90000404208
:105560003C2805DC87480088401C8649088002E00A
:105570000020844908808348008864280ADD824826
:105580000068401C8049086000207E490880012096
:1055900078490870704700B5FFF7A7FF00BD10B548
:1055A00000240DF0E5FC04467D206F490860774833
:1055B0000068A04211D27648007802280DD15D48DB
:1055C000008850B90846006820447049086059486E
:1055D0000088401C00B25749088010BD10B5002457
:1055E0000DF0C6FC04466B48407C01287ED06A481A
:1055F000407CA8B969480068401C684908600846B2
:1056000090ED000AB8EE400A6548D0ED000AB4EE0D
:10561000E00AF1EE10FA09DD00206249087005E0A9
:1056200000205E49086001205E490870C8204E498C
:1056300008605C480078012869D104F092FF0028D6
:1056400065D1594890ED000AF7EE000A30EE200AC5
:1056500080ED000A90ED000ADFED540AB4EEE00A96
:10566000F1EE10FA54DD03F02AFF48B103F098FF81
:1056700030B100204E49086001204E4908700BE00F
:105680004B480068401C4A490860084600683228B8
:1056900002D900204749087046480078012805D102
:1056A00045480068401C4449086002E00020424927
:1056B000086042480068A0422AD21E48008800289C
:1056C00026D13D4890ED000AB8EE400A3C48D0EDA6
:1056D000000AB4EEE00AF1EE10FA19DD2E48D0F817
:1056E000070000EE100AB5EEC00A00E093E0F1EE0C
:1056F00010FA0DD02848D0F8030000EE100AB5EEDD
:10570000C00AF1EE10FA03D000EE104A5AE06CE045
:10571000A2E00000F6020020F0020020F4020020C7
:10572000FE020020000300200803002004030020E4
:105730001603002070020020140300202002002025
:105740002C020020300200203C02002000007A459C
:105750000E020020120300200000C046800200203C
:10576000EC020020480200204402002084020020B5
:10577000340200201003002000007AC53802002007
:105780000E0300200C0300207C020020C002002039
:1057900088020020D8080020C0110020A0020020AC
:1057A000B00200208C020020B40200200000484219
:1057B000A40200208D020020E8020020E402002064
:1057C000B8020020B8EE400AFE48D0ED000A30EEE4
:1057D000200ABCEEC00AFC4880ED000AFB480088A5
:1057E000401C00B2F949088036E00020F849086002
:1057F000F849087004F0B5FE30B19FEDF70AF7489C
:1058000080ED000A04F0B4FE601EEF49086000203D
:10581000EE49088020E0F248007C01280FD1F148D1
:105820000078012803D10220EE4908700EE0ED480F
:10583000007802280AD10020EA49087006E0E8480A
:10584000007C012802D00120E6490870E448007C71
:10585000012801D1FFF7A3FE10BD10B50DF088FBA4
:10586000E14908603220E1490860E1480068DE490A
:10587000096888420FD2D548008860B9DA480068C4
:10588000DA4909680844DA490860D0480088401CB1
:1058900000B2CE49088010BD10B50DF069FBD549A6
:1058A00008603220D1490860D3480068D1490968AE
:1058B00088420FD2C548008860B9CE480068CB49FD
:1058C00009680844CC490860C0480088401C00B200
:1058D000BE49088010BD10B50120C849087004F009
:1058E0004CFA282803DC0820C549088022E004F08F
:1058F00044FA3C2807DC04F040FA282803DD08209D
:10590000BF49088016E004F038FA502807DC04F09C
:1059100034FA3C2803DD0820B94908800AE004F085
:105920002CFAA02803DB0E20B549088002E00820ED
:10593000B3490880B2480088B42110FB01F000EEA2
:10594000100AB8EEC00AAF4880ED000A10BD10B5CD
:10595000A348007C01280FD1A2480078012803D178
:105960000220A049087011E09E48007802280DD15D
:1059700000209C49087009E09948007C012805D066
:1059800001209849087000209F4908609448007CD5
:10599000012819D19C480068962815D89048408A5B
:1059A00000F4004080B98E48408A00F4006058B985
:1059B00000209249087094480068401C9249086091
:1059C0000120924908706BE08548007C012819D1BC
:1059D0008D480068962815D98148408A00F4004017
:1059E00080B97F48408A00F4006058B98648006852
:1059F000401C8549086000208049087002208349C6
:105A000008704DE07648408A00F4004090B1744838
:105A1000007C01280ED07248408A00F4006048B92A
:105A200000207649087003207849087000207649E4
:105A3000086035E06A48408A00F4006090B1684828
:105A4000007C01280ED06648408A00F4004048B926
:105A500000206A49087004206C49087000206A49D7
:105A600008601DE000F0BFFD60B103F00CFD48B917
:105A700000206249087005206449087000206249CE
:105A800008600DE0002061490870584908600DF079
:105A90006FFA5F49086000205B4908604B49088045
:105AA00000F0A1FD38B901205A49087000205A4978
:105AB00008705A49087010BD10B500204F49087091
:105AC000FFF745FF5148007807281BD2DFE800F0B8
:105AD00004070A0D10131900FFF739FF12E0FFF752
